:08000000803102288731FD2F39
:10000E0002308B31E423803154308C311324803113
:10001E000800F4005A2852308C31132480315830A5
:10002E008C3113248031712842308C31132480316D
:10003E0020308C3113248031712848308C311324B8
:10004E00803120308C311324803171284C308C312A
:10005E001324803120308C31132480317128563096
:10006E008C311324803120308C311324803171284F
:10007E0053308C311324803120308C311324803155
:10008E00712850308C311324803120308C31132460
:10009E008031712814308B31E423803114308B3150
:1000AE00E423803171287408003A03191228013AAA
:1000BE0003191B28033A03192428013A03192D2882
:1000CE00073A03193628013A03193F28033A031950
:1000DE00482851280800F7007408F5000430F5365A
:1000EE00890B76287508F6007608F900F030F500D1
:1000FE007508F00079088B31CF2380317407F60034
:10010E007608F80001308B31E4238031B228563066
:10011E008C311324803120308C3113248031BD2852
:10012E0053308C311324803120308C3113248031A4
:10013E00BD2850308C311324803120308C31132463
:10014E008031BD2820308C311324803120308C3109
:10015E0013248031BD287708043A03198E28013AFA
:10016E0003199728033A0319A028A92820308C31A7
:10017E00132480310A307902031CC628C728CD28E3
:10018E007908373E8C3113248031D2287908303EDD
:10019E008C31132480310A307802031CD728D828DA
:1001AE00DE287808373E8C3113248031E328780816
:1001BE00303E8C311324803108008F31422780313C
:1001CE00F9007908FC005E29FB0115294C308C31B1
:1001DE00132480312C2952308C31132480312C2958
:1001EE0046308C31132480312C2955308C31132418
:1001FE0080312C2944308C31132480312C2943300A
:10020E008C31132480312C2950308C3113248031C1
:10021E002C294F308C31132480312C297C08003A44
:10022E0003190B29013A0319FC28033A0319012972
:10023E00013A0319F228073A0319ED28013A031976
:10024E000629033A0319F72810290230FA00043060
:10025E00F900BA30890B3129F90B3129FA0B312902
:10026E0000328F3142278031F9007908FC000130CD
:10027E00F9007908FB0708307B02031C472948293F
:10028E00152907307C0603194D294E295A290330AA
:10029E00FA000830F9007730890B5329F90B5329EE
:1002AE00FA0B5329000001308B31E42380310730E3
:1002BE007C06031D63296429EB280800F400DC2961
:1002CE0020308C311324813132308C311324813122
:1002DE0039308C3113248131F62920308C3113249E
:1002EE00813135308C311324813131308C311324EE
:1002FE008131F62931308C311324813134308C31F7
:10030E001324813134308C3113248131F62931306C
:10031E008C311324813134308C31132481313530BA
:10032E008C3113248131F62934308C3113248131F0
:10033E0033308C311324813131308C31132481319F
:10034E00F62934308C311324813133308C3113241F
:10035E00813132308C3113248131F62934308C3195
:10036E001324813133308C311324813133308C316D
:10037E0013248131F62934308C31132481313330FA
:10038E008C311324813134308C3113248131F62990
:10039E0065308C311324813172308C3113248131CC
:1003AE0072308C3113248131F6297408003A031906
:1003BE006729013A03197429033A03198129013A6D
:1003CE0003198E29073A03199B29013A0319A82903
:1003DE00033A0319B529013A0319C229CF29080096
:1003EE002000C4004408B9003908A0007C08BA00F7
:1003FE003A08A100013083313423813120002308D3
:10040E00C1002208C0002108BF002008BE003E081F
:10041E00B9003F08BA004008BB004108BC001030CC
:10042E00BC36BB0CBA0CB90C890B172A3A08C8009B
:10043E003908C7003F08CA003E08C90022000E1442
:10044E00562A22008E140E118E110E128E120030AC
:10045E002000CB00C030CC00712A22008E100E1569
:10046E008E110E128E1200302000CB008030CC0088
:10047E00712A22008E100E118E150E128E12003061
:10048E002000CB002030CC00712A22008E100E11DD
:10049E008E110E168E122000CB01CC01712A200077
:1004AE004408003A0319282A013A0319342A033A58
:1004BE000319402A013A0319402A073A03194C2A14
:1004CE00013A03194C2A033A03194C2A013A03192B
:1004DE004C2A4C2A0430B9003908CD0022000C14E5
:1004EE0021000C140032003222008C140032003233
:1004FE0022000C1021000C100032003222008C1051
:10050E000032003290308D319B25813120004D0814
:10051E00B9003908CE004E088D319B25813120005F
:10052E004D08B900BA01B935BA0D0030390784004B
:10053E0090303A3D8500003FBB00013FBC003C08B7
:10054E00BD003D08CE004E088D319B258131200027
:10055E004D08B900BA01B935BA0D0030390784001B
:10056E0090303A3D85000008BB003B08CE004E0897
:10057E008D319B25813122008C140430890BC52AC4
:10058E0022000C1421000C140D30890BCC2A000013
:10059E0001302000B9003908CD0718304D02031C78
:1005AE00D92ADA2A752AC6014608023CB90039084A
:1005BE00C5004535473E86008701403FC200413F9A
:1005CE00C30022000C1421000C1400320032220051
:1005DE008C140032003222000C1021000C1000325C
:1005EE00003222008C100032003290308D319B256B
:1005FE00813120004508B9003908CE004E088D31F2
:10060E009B25813120004308B9003908CE004E08E1
:10061E008D319B25813120004208B9003908CE006A
:10062E004E088D319B25813122008C140430890BAC
:10063E001E2B22000C1421000C140D30890B252BBF
:10064E00000001302000B9003908C6070330460209
:10065E00031C322B332BDB2A08002000B800472C5A
:10066E003808A400A501A435A50DA435A50DB430F8
:10067E00240784009030253D8500003FB000013FE7
:10068E00B100023FB200033FB300BC308400903093
:10069E008500003FB400013FB500023FB600033FA6
:1006AE00B700612C3808A400A501A435A50DA4350A
:1006BE00A50DA830240784009030253D8500003F0D
:1006CE00B000013FB100023FB200033FB300B030B3
:1006DE00840090308500003FB400013FB500023F1A
:1006EE00B600033FB700612C3808A400A501A4355D
:1006FE00A50DA435A50D9C30240784009030253D12
:10070E008500003FB000013FB100023FB200033F41
:10071E00B300A430840090308500003FB400013F48
:10072E00B500023FB600033FB700612C3808A400A5
:10073E00A501A435A50DA435A50D90302407840080
:10074E009030253D8500003FB000013FB100023FD3
:10075E00B200033FB3009830840090308500003F14
:10076E00B400013FB500023FB600033FB700612C55
:10077E003808A400A501A435A50DA435A50D843017
:10078E00240784009030253D8500003FB000013FD6
:10079E00B100023FB200033FB3008C3084009030B2
:1007AE008500003FB400013FB500023FB600033F95
:1007BE00B700612C3808A400A501A435A50DA435F9
:1007CE00A50D7830240784009030253D8500003F2C
:1007DE00B000013FB100023FB200033FB3008030D2
:1007EE00840090308500003FB400013FB500023F09
:1007FE00B600033FB700612C3808A400A501A4354C
:10080E00A50DA435A50D6C30240784009030253D30
:10081E008500003FB000013FB100023FB200033F30
:10082E00B3007430840090308500003FB400013F67
:10083E00B500023FB600033FB700612C3808A40094
:10084E00A501A435A50DA435A50D6030240784009F
:10085E009030253D8500003FB000013FB100023FC2
:10086E00B200033FB3006830840090308500003F33
:10087E00B400013FB500023FB600033FB700612C44
:10088E002008003A0319372B013A0319592B033A62
:10089E0003197B2B013A03199D2B073A0319BF2B22
:1008AE00013A0319E12B033A0319032C013A0319F8
:1008BE00252C252C2136A400A501A601A701270869
:1008CE00F3002608F2002508F1002408F00037088E
:1008DE00F7003608F6003508F5003408F4008C31C0
:1008EE0042248331700820003007A8007108313D82
:1008FE00A9007208323DAA007308333DAB002B08E5
:10090E00AF002A08AE002908AD002808AC002F0859
:10091E00A3002E08A2002D08A1002C08A00008009C
:10092E002000C7004708BC003C08A0003908BD00E5
:10093E003D08A10000308331342384312000230888
:10094E00C4002208C3002108C2002008C1004108CB
:10095E00BC004208BD004308BE004408BF00103072
:10096E00BF36BE0CBD0CBC0C890BB72C3D08CB00A2
:10097E003C08CA004208CD004108CC0022000E10EF
:10098E00F62C22008E140E118E110E128E120030C5
:10099E002000CE00C030CF00112D22008E100E157B
:1009AE008E110E128E1200302000CE008030CF003D
:1009BE00112D22008E100E118E150E128E12003079
:1009CE002000CE002030CF00112D22008E100E11EF
:1009DE008E110E168E122000CE01CF01112D200089
:1009EE004708003A0319C82C013A0319D42C033ACC
:1009FE000319E02C013A0319E02C073A0319EC2CE9
:100A0E00013A0319EC2C033A0319EC2C013A0319A1
:100A1E00EC2CEC2C0430BC003C08D00022000C1452
:100A2E0021000C140032003222008C1400320032ED
:100A3E0022000C1021000C100032003222008C100B
:100A4E000032003290308D319B25843120005008C9
:100A5E00BC003C08D10051088D319B25843120000B
:100A6E005008BC00BD01BC35BD0D30303C078400C4
:100A7E0090303D3D8500003FBE00013FBF003F0866
:100A8E00C0004008D10051088D319B2584311330B0
:100A9E0020005006031D542D552D662D5008BC0008
:100AAE00BD01BC35BD0D30303C07840090303D3D5E
:100ABE00850000083A07BE003E08D1008C2D163086
:100ACE005006031D6B2D6C2D7D2D5008BC00BD01F5
:100ADE00BC35BD0D30303C07840090303D3D850067
:100AEE0000083B07BE003E08D1008C2D5008BC000C
:100AFE00BD01BC35BD0D30303C07840090303D3D0E
:100B0E0085000008BE003E08D10051088D319B259E
:100B1E00843122008C140430890B932D22000C1486
:100B2E0021000C140D30890B9A2D0000013020008D
:100B3E00BC003C08D00718305002031CA72DA82D6E
:100B4E00152DC9014908023CBC003C08C8004835B7
:100B5E004A3E86008701403FC500413FC600220045
:100B6E000C1421000C140032003222008C140032BE
:100B7E00003222000C1021000C1000320032220034
:100B8E008C100032003290308D319B258431200044
:100B9E004808BC003C08D10051088D319B2584319A
:100BAE0020004608BC003C08D10051088D319B2521
:100BBE00843120004508BC003C08D10051088D311D
:100BCE009B25843122008C140430890BEC2D2200DD
:100BDE000C1421000C140D30890BF32D0000013084
:100BEE002000BC003C08C90703304902031C002E3C
:100BFE00012EA92D08002000D601DD01D7010A30F3
:100C0E00D2005208D8004030D2005208D900073026
:100C1E00D2005208D5000630D2005208DB00DC01AB
:100C2E008D31DC2586318C31AD24863102302000A9
:100C3E00D3000430D200BA30890B232ED20B232ED0
:100C4E00D30B232E00008031E420863102302000A9
:100C5E00D3000430D200BA30890B332ED20B332E90
:100C6E00D30B332E000006302000D2005208F900BC
:100C7E00FA0100308E31602686312000B9010A302B
:100C8E00D2005208BA004830D3005308BB000630D9
:100C9E0084319724863102302000D3000430D200F4
:100CAE00BA30890B582ED20B582ED30B582E00006B
:100CBE008F31422786312000D2005208DA000330ED
:100CCE002000D2009730890B6A2ED20B6A2E00328A
:100CDE00200057080319742E752EE92F002F5B087C
:100CEE00D2005208F0005A088C317524863120004B
:100CFE00D3005308DB005B08D2005208F9005C08F1
:100D0E00D3005308FA005D088E3160268631E92F34
:100D1E005C08D2005208F0005A088E31A7268631A0
:100D2E002000D3005308DC005B08D2005208F90003
:100D3E005C08D3005308FA005D088E3160268631B8
:100D4E00E92F5C08D2005208F0005A088E311D2699
:100D5E0086312000D3005308DC005B08D200520815
:100D6E00F9005C08D3005308FA005D088E31602646
:100D7E008631E92F5808D2005208F0005A088D31FA
:100D8E00222586312000D3005308D8005808D200FF
:100D9E005208F4005D08803172208631E92F59081F
:100DAE00D2005208F0005A088D315E25863120009F
:100DBE00D3005308D9005908D2005208F4005D0838
:100DCE00803172208631E92F5508D2005208F0008A
:100DDE005A088C31E62486312000D3005308D50002
:100DEE005508D2005208F4005D0880317220863119
:100DFE00E92F5D08013A0319762E033A03198F2E57
:100E0E00013A0319A82E073A0319C12E013A031904
:100E1E00D62E033A0319EB2E142FE92F22008C162F
:100E2E00063020005D02031C1D2F1E2F232F0630BF
:100E3E00D2005208DD00272F0130D2005208DD0704
:100E4E003230D2005208D70002302000D3003830A2
:100E5E00D200AD30890B312FD20B312FD30B312F66
:100E6E0022008C125F2E22008C1620005D08031DBE
:100E7E00412F422F452FDD01D7012B2F0130DD02EF
:100E8E00272F5D08031D4C2F4D2F4F2FD701532FAA
:100E9E001E30D2005208D700D0302000D200C93008
:100EAE00890B572FD20B572F00325F2E5608031D7A
:100EBE00612F622F802FD601D60A5B08D20052080E
:100ECE00F9005C08D3005308FA005D088E316026E5
:100EDE00863180310720863120005C08D20052080E
:100EEE00FC000730D3005308FD005B088131F72169
:100EFE0086312000D701DD015F2E5C08D20052083A
:100F0E00B9005808D3005308BA005908D400540841
:100F1E00BB005B08843197248631200056080319E4
:100F2E00992F9A2FB82FD6015B08D2005208F900DC
:100F3E005C08D3005308FA005D088E3160268631B6
:100F4E0020005C08D2005208B9005808D30053089C
:100F5E00BA005908D4005408BB005B0884319724AA
:100F6E00863120005708031DBD2FBE2FDD2FDD015A
:100F7E005B08D2005208F9005C08D3005308FA004F
:100F8E0000308E316026863120005C08D200520877
:100F9E00B9005808D3005308BA005908D4005408B1
:100FAE00BB005B088431972486315F2E0130D70257
:100FBE0082302000D200DD30890BE32FD20BE32FDD
:100FCE0000325F2E20005A08003A03195D2F013AB5
:100FDE000319482F033A0319482F013A0319152F05
:100FEE00073A03193A2F842F8031022820008631C8
:020FFE00022EC1
:10179E00F300F201731CD42BD52BD92B7008F1005A
:1017AE007108F2070310F00D0310F30C7308031DFC
:1017BE00E12BE22BD12B72080800F30022000C144F
:1017CE0021000C140032003222008C140032003240
:1017DE0022000C1021000C100032003222008C105E
:1017EE00003200327C308D319B258B3100308D31B3
:1017FE009B258B3173088D319B258B3122008C14E8
:10180E000430890B082C22000C1421000C140D300E
:10181E00890B0F2C00000800F30022000C1421008D
:10182E000C140032003222008C14003200322200DE
:10183E000C1021000C100032003222008C100032ED
:10184E0000327C308D319B258C3140308D319B2583
:10185E008C3173088D319B258C3122008C14043011
:10186E00890B372C22000C1421000C140D30890B1F
:10187E003E2C000008000030FB000030FA00003063
:10188E00F9000030F800701C4D2C4E2C562C7408AC
:10189E00F8077508F93D7608FA3D7708FB3D0130EB
:1018AE00F435F50DF60DF70D890B572C0130F33687
:1018BE00F20CF10CF00C890B5E2C7308720471049F
:1018CE007004031D6B2C6C2C4A2C7B08F3007A08D9
:1018DE00F2007908F1007808F0000800F2007008B4
:1018EE00F1007108F300A32C22008C167308031D5F
:1018FE00812C822C872C0730F1007108F300892C83
:10190E000130F3021A30F100F830890B8C2CF10BF8
:10191E008C2C003222008C12AB2C22008C1607303D
:10192E007302031C9B2C9C2C9E2CF301892C0130E2
:10193E00F1007108F307892C7208013A0319942CEF
:10194E00033A03197B2CAB2C730808006830F400A3
:10195E00E430890BB02CF40BB02C003238308B31C4
:10196E00E4238C3139308B31E4238C3114308B31BC
:10197E00E4238C3170308B31E4238C3156308B3133
:10198E00E4238C316C308B31E4238C310330F50041
:10199E000830F4007730890BD22CF40BD22CF50BD7
:1019AE00D22C000034308B31E4238C310C308B314F
:1019BE00E4238C3101308B31E4238C310800F200AA
:1019CE007008F1007108F300182D22008C167308B0
:1019DE00031DF22CF32CF52CF301FA2C7308FF3EA9
:1019EE00F1007108F3001A30F100F830890BFD2C6C
:1019FE00F10BFD2C003222008C12202D22008C16B1
:101A0E0007307302031C0C2D0D2D122D0730F10023
:101A1E007108F300FA2C7308013EF1007108F3000F
:101A2E00FA2C7208013A0319052D033A0319EC2C0E
:101A3E00202D73080800F2007008F1007108F30001
:101A4E00542D22008C167308031D2E2D2F2D312D93
:101A5E00F301362D7308FF3EF1007108F3001A30C2
:101A6E00F100F830890B392DF10B392D003222009F
:101A7E008C125C2D22008C160F307302031C482D25
:101A8E00492D4E2D0F30F1007108F300362D7308DD
:101A9E00013EF1007108F300362D7208013A031968
:101AAE00412D033A0319282D5C2D73080800F2000E
:101ABE007008F1007108F300912D22008C1604308D
:101ACE00730203186B2D6C2D6E2DF301732D73089D
:101ADE00FC3EF1007108F3001A30F100F830890B6A
:101AEE00762DF10B762D003222008C12992D2200CC
:101AFE008C16FC307302031C852D862D8B2DFC302D
:101B0E00F1007108F300732D7308043EF1007108A3
:101B1E00F300732D7208013A03197E2D033A03194F
:101B2E00642D992D73080800F100F201F11BA02D10
:101B3E00A12DA62D22000C1021000C10AA2D220082
:101B4E000C1421000C147135F0007008F1000032F5
:101B5E00003222008C140032003200320032220099
:101B6E008C10003200320130F0007008F20708309D
:101B7E007202031CC32DC42D9D2D22000C142100B6
:101B8E000C140530890BC92D000022008C14003274
:101B9E0000320032003222008C100C1021000C108A
:101BAE000D30890BD82D00000800683021009900F7
:101BBE001D308C009501193024008C008B010330F0
:101BCE0022008C00043023008C00093021009D007F
:101BDE0080309E009F018E0122008E01F2012200B4
:101BEE008C160230F1000430F000BA30890BFD2D56
:101BFE00F00BFD2DF10BFD2D003222008C12023068
:101C0E00F1000430F000BA30890B0B2EF00B0B2EC6
:101C1E00F10B0B2E00320130F0007008F20703308A
:101C2E007202031C1B2E1C2EF62D0800F2007008EB
:101C3E00F1007108F3004F2E22008C167308031D5D
:101C4E00292E2A2E2F2E6230F1007108F300342E29
:101C5E007308FE3EF1007108F3001A30F100F830FF
:101C6E00890B372EF10B372E003222008C12572E95
:101C7E0022008C1662307302031C462E472E492E0C
:101C8E00F301342E7308023EF1007108F300342E76
:101C9E007208013A03193F2E033A0319232E572EC9
:101CAE0064307302031C5C2E5D2E5E2EF3017308EE
:101CBE0008002000A000A20101308B31E4238E31F8
:101CCE0020002008803110208E3179088131652165
:101CDE008E310A30F0000030F1007A08FB00FC0172
:101CEE007B08F2007C08F3008F31A1278E3170083B
:101CFE00FD007D082000A1000A30F0000030F10048
:101D0E007A08FB00FC017B08F2007C08F3008E31A0
:101D1E00EF268E317008FD007D082000A2002E30C7
:101D2E008C3113248E3120002108303E8C31132447
:101D3E008E3120002208303E8C3113248E31080063
:101D4E00F2007008F1007108F300DE2E22008C16EE
:101D5E000A3073020318B42EB52EBB2E73085A3EEA
:101D6E00F1007108F300C02E7308F63EF100710801
:101D7E00F3001A30F100F830890BC32EF10BC32E8D
:101D8E00003222008C12E62E22008C1673080A3EB8
:101D9E00F1007108F30064307302031CD72ED82EA5
:101DAE00C02E73089C3EF1007108F300C02E72081D
:101DBE00013A0319CB2E033A0319AD2EE62E6430E9
:101DCE007302031CEB2EEC2EED2EF30173080800AC
:101DDE00F601F31FF32EF42EFB2EF209F309F20A8D
:101DEE000319F30AF601F60AF11FFE2EFF2E042F39
:101DFE00F009F109F00A0319F10A700871040319C8
:101E0E00092F0A2F332FF501F50A162F0130F03561
:101E1E00F10D890B0E2F0130F4007408F507F11F38
:101E2E00192F1A2F0D2F71087302031D202F700802
:101E3E007202031C232F242F282F7008F202710820
:101E4E00F33B0130F136F00C890B292F0130F502EE
:101E5E00031D322F332F1A2F76080319372F382FE1
:101E6E003D2FF209F309F20A0319F30A7308F10080
:101E7E007208F00008000D30890B432F000021007E
:101E8E009D149D184B2F4C2F482F1C08F000F1016C
:101E9E007008F6007108F7001B08F000F1017608D3
:101EAE00F300F20170087204F40071087304F50077
:101EBE007408F6007508F7007708F1007608F00050
:101ECE00F136F00CF136F00C7008F2007208F800E2
:101EDE00D9307802031C742F752F772F0730A02F5F
:101EEE00B9307802031C7C2F7D2F7F2F0430A02F5A
:101EFE0099307802031C842F852F872F0330A02F53
:101F0E0079307802031C8C2F8D2F8F2F0530A02F48
:101F1E0039307802031C942F952F972F0130A02F64
:101F2E0019307802031C9C2F9D2F9F2F0230A02F5B
:101F3E0000300800F601F11FA52FA62FAD2FF009D6
:101F4E00F109F00A0319F10AF601F60AF31FB02F90
:101F5E00B12FBA2FF209F309F20A0319F30A01306D
:101F6E00F4007408F606F701F801700871040319FD
:101F7E00C12FC22FF12FF501F50ACE2F0130F0350A
:101F8E00F10D890BC62F0130F4007408F507F11F0F
:101F9E00D12FD22FC52F0130F735F80D890BD32F46
:101FAE0071087302031DDD2F70087202031CE02FEF
:101FBE00E12FE62F7008F2027108F33B771401301F
:101FCE00F136F00C890BE72F0130F502031DF02FCF
:101FDE00F12FD22F76080319F52FF62FFB2FF709C5
:101FEE00F809F70A0319F80A7808F1007708F000E3
:101FFE000800823451343A347834003400340034DA
:10200E00003400347C34043400344034F134003471
:10201E00ED34E0341734E434E034433485340034A2
:10202E0007346634A034FF34FF34E034FF341F34F9
:10203E0006343C349E3400341F34C134D1340F3452
:10204E002034FF3401340034E03440340334D034CF
:10205E00AE347B3451342C34DE340034003400344E
:10206E0000340034033404340C344034F13400347E
:10207E00ED34E0341734E434E03443348534003442
:10208E0007346634A034FF34FF34E034FF341F3499
:10209E0006343C349E3400341F34D134D1340034F1
:1020AE002034FF3401340034E03400340034E8349A
:1020BE0000346334D8346B34523472347234723424
:1020CE005234B934F634003400347234E7347A348E
:1020DE0051348134813481345134B934F63400347E
:1020EE0000344234B7344A345134513451345134BB
:1020FE005134B934F63400340034123487341A347F
:10210E0051342134213421345134B934F63400346D
:10211E000034B5341334CE345134E134E134E13487
:10212E0051342B34E43402340034243483343D34BB
:10213E00513451345134513451342B34E43402344B
:10214E000034E134FB342A34563466346634663453
:10215E0056348434AC34083400346A34B634ED3436
:10216E005634573457345734573494346B340F3401
:02217E0000342B
:020000040001F9
:08000000FF3FFF3FFF3FFF3F00
:04000E00A43FFF1DEF
:00000001FF
